{
  "contractName": "work",
  "abi": [
    {
      "inputs": [],
      "stateMutability": "nonpayable",
      "type": "constructor"
    },
    {
      "inputs": [
        {
          "internalType": "string",
          "name": "",
          "type": "string"
        }
      ],
      "name": "balances",
      "outputs": [
        {
          "internalType": "uint256",
          "name": "",
          "type": "uint256"
        }
      ],
      "stateMutability": "view",
      "type": "function",
      "constant": true
    },
    {
      "inputs": [
        {
          "internalType": "string",
          "name": "",
          "type": "string"
        }
      ],
      "name": "check",
      "outputs": [
        {
          "internalType": "bool",
          "name": "",
          "type": "bool"
        }
      ],
      "stateMutability": "view",
      "type": "function",
      "constant": true
    },
    {
      "inputs": [
        {
          "internalType": "string",
          "name": "",
          "type": "string"
        }
      ],
      "name": "marks",
      "outputs": [
        {
          "internalType": "uint256",
          "name": "sub1",
          "type": "uint256"
        },
        {
          "internalType": "uint256",
          "name": "sub2",
          "type": "uint256"
        },
        {
          "internalType": "uint256",
          "name": "sub3",
          "type": "uint256"
        },
        {
          "internalType": "uint256",
          "name": "total",
          "type": "uint256"
        }
      ],
      "stateMutability": "view",
      "type": "function",
      "constant": true
    },
    {
      "inputs": [
        {
          "internalType": "string",
          "name": "",
          "type": "string"
        }
      ],
      "name": "students",
      "outputs": [
        {
          "internalType": "string",
          "name": "name",
          "type": "string"
        },
        {
          "internalType": "string",
          "name": "add",
          "type": "string"
        },
        {
          "internalType": "string",
          "name": "caste",
          "type": "string"
        },
        {
          "internalType": "uint256",
          "name": "tokens",
          "type": "uint256"
        },
        {
          "internalType": "uint256",
          "name": "scholaramount",
          "type": "uint256"
        },
        {
          "internalType": "uint256",
          "name": "totalmarks",
          "type": "uint256"
        }
      ],
      "stateMutability": "view",
      "type": "function",
      "constant": true
    },
    {
      "inputs": [
        {
          "internalType": "string",
          "name": "_name",
          "type": "string"
        },
        {
          "internalType": "string",
          "name": "_add",
          "type": "string"
        },
        {
          "internalType": "string",
          "name": "_caste",
          "type": "string"
        },
        {
          "internalType": "uint256",
          "name": "_income",
          "type": "uint256"
        },
        {
          "internalType": "uint256",
          "name": "m1",
          "type": "uint256"
        },
        {
          "internalType": "uint256",
          "name": "m2",
          "type": "uint256"
        },
        {
          "internalType": "uint256",
          "name": "m3",
          "type": "uint256"
        }
      ],
      "name": "register",
      "outputs": [],
      "stateMutability": "nonpayable",
      "type": "function"
    },
    {
      "inputs": [
        {
          "internalType": "string",
          "name": "_add",
          "type": "string"
        },
        {
          "internalType": "uint256",
          "name": "_tokens",
          "type": "uint256"
        }
      ],
      "name": "supply",
      "outputs": [],
      "stateMutability": "nonpayable",
      "type": "function"
    },
    {
      "inputs": [
        {
          "internalType": "string",
          "name": "_sender",
          "type": "string"
        },
        {
          "internalType": "string",
          "name": "_add",
          "type": "string"
        },
        {
          "internalType": "uint256",
          "name": "_tokens",
          "type": "uint256"
        }
      ],
      "name": "transfer",
      "outputs": [],
      "stateMutability": "nonpayable",
      "type": "function"
    },
    {
      "inputs": [
        {
          "internalType": "string",
          "name": "_add",
          "type": "string"
        }
      ],
      "name": "getdetails",
      "outputs": [
        {
          "components": [
            {
              "internalType": "string",
              "name": "name",
              "type": "string"
            },
            {
              "internalType": "string",
              "name": "add",
              "type": "string"
            },
            {
              "internalType": "string",
              "name": "caste",
              "type": "string"
            },
            {
              "internalType": "uint256",
              "name": "tokens",
              "type": "uint256"
            },
            {
              "internalType": "uint256",
              "name": "scholaramount",
              "type": "uint256"
            },
            {
              "internalType": "uint256",
              "name": "totalmarks",
              "type": "uint256"
            }
          ],
          "internalType": "struct work.student",
          "name": "",
          "type": "tuple"
        }
      ],
      "stateMutability": "view",
      "type": "function",
      "constant": true
    },
    {
      "inputs": [
        {
          "internalType": "string",
          "name": "_add",
          "type": "string"
        }
      ],
      "name": "getBalance",
      "outputs": [
        {
          "internalType": "uint256",
          "name": "",
          "type": "uint256"
        }
      ],
      "stateMutability": "view",
      "type": "function",
      "constant": true
    }
  ],
  "bytecode": "0x608060405234801561001057600080fd5b506001600081905550662386f26fc10000600181905550611b26806100366000396000f3fe608060405234801561001057600080fd5b50600436106100935760003560e01c80639b80b050116100665780639b80b050146101445780639c104b5d14610160578063b6f921ad1461017c578063c7ef6bfb146101ac578063eb05886b146101e157610093565b80632afd97a4146100985780633a51d246146100c857806343a6a82b146100f85780636f2ea38c14610128575b600080fd5b6100b260048036038101906100ad9190611429565b610214565b6040516100bf919061148b565b60405180910390f35b6100e260048036038101906100dd9190611429565b610242565b6040516100ef919061148b565b60405180910390f35b610112600480360381019061010d9190611429565b61026f565b60405161011f91906115d4565b60405180910390f35b610142600480360381019061013d9190611622565b610481565b005b61015e60048036038101906101599190611718565b6106b9565b005b61017a600480360381019061017591906117a3565b610c8c565b005b61019660048036038101906101919190611429565b610f90565b6040516101a3919061181a565b60405180910390f35b6101c660048036038101906101c19190611429565b610fc6565b6040516101d89695949392919061187f565b60405180910390f35b6101fb60048036038101906101f69190611429565b6111b0565b60405161020b94939291906118f5565b60405180910390f35b6004818051602081018201805184825260208301602085012081835280955050505050506000915090505481565b6000806004836040516102559190611976565b908152602001604051809103902054905080915050919050565b6102776111f6565b60006003836040516102899190611976565b90815260200160405180910390206040518060c00160405290816000820180546102b2906119bc565b80601f01602080910402602001604051908101604052809291908181526020018280546102de906119bc565b801561032b5780601f106103005761010080835404028352916020019161032b565b820191906000526020600020905b81548152906001019060200180831161030e57829003601f168201915b50505050508152602001600182018054610344906119bc565b80601f0160208091040260200160405190810160405280929190818152602001828054610370906119bc565b80156103bd5780601f10610392576101008083540402835291602001916103bd565b820191906000526020600020905b8154815290600101906020018083116103a057829003601f168201915b505050505081526020016002820180546103d6906119bc565b80601f0160208091040260200160405190810160405280929190818152602001828054610402906119bc565b801561044f5780601f106104245761010080835404028352916020019161044f565b820191906000526020600020905b81548152906001019060200180831161043257829003601f168201915b505050505081526020016003820154815260200160048201548152602001600582015481525050905080915050919050565b6000808284866104919190611a1d565b61049b9190611a1d565b905060f0811180156104ae575061271086105b156104be576201388091506104f2565b6096811180156104cf575060f08111155b80156104dc575061271086105b156104eb5761c35091506104f1565b61271091505b5b6104fa6111f6565b898160000181905250888160200181905250878160400181905250828160800181815250506000816060018181525050818160a00181815250508060038a6040516105459190611976565b9081526020016040518091039020600082015181600001908051906020019061056f92919061122c565b50602082015181600101908051906020019061058c92919061122c565b5060408201518160020190805190602001906105a992919061122c565b50606082015181600301556080820151816004015560a08201518160050155905050600060048a6040516105dd9190611976565b908152602001604051809103902081905550600060405180608001604052808881526020018781526020018681526020018481525090508060058b6040516106259190611976565b90815260200160405180910390206000820151816000015560208201518160010155604082015181600201556060820151816003015590505060008081548092919061067090611a73565b9190505550600160028b6040516106879190611976565b908152602001604051809103902060006101000a81548160ff0219169083151502179055505050505050505050505050565b60006003836040516106cb9190611976565b90815260200160405180910390206040518060c00160405290816000820180546106f4906119bc565b80601f0160208091040260200160405190810160405280929190818152602001828054610720906119bc565b801561076d5780601f106107425761010080835404028352916020019161076d565b820191906000526020600020905b81548152906001019060200180831161075057829003601f168201915b50505050508152602001600182018054610786906119bc565b80601f01602080910402602001604051908101604052809291908181526020018280546107b2906119bc565b80156107ff5780601f106107d4576101008083540402835291602001916107ff565b820191906000526020600020905b8154815290600101906020018083116107e257829003601f168201915b50505050508152602001600282018054610818906119bc565b80601f0160208091040260200160405190810160405280929190818152602001828054610844906119bc565b80156108915780601f1061086657610100808354040283529160200191610891565b820191906000526020600020905b81548152906001019060200180831161087457829003601f168201915b505050505081526020016003820154815260200160048201548152602001600582015481525050905060006003856040516108cc9190611976565b90815260200160405180910390206040518060c00160405290816000820180546108f5906119bc565b80601f0160208091040260200160405190810160405280929190818152602001828054610921906119bc565b801561096e5780601f106109435761010080835404028352916020019161096e565b820191906000526020600020905b81548152906001019060200180831161095157829003601f168201915b50505050508152602001600182018054610987906119bc565b80601f01602080910402602001604051908101604052809291908181526020018280546109b3906119bc565b8015610a005780601f106109d557610100808354040283529160200191610a00565b820191906000526020600020905b8154815290600101906020018083116109e357829003601f168201915b50505050508152602001600282018054610a19906119bc565b80601f0160208091040260200160405190810160405280929190818152602001828054610a45906119bc565b8015610a925780601f10610a6757610100808354040283529160200191610a92565b820191906000526020600020905b815481529060010190602001808311610a7557829003601f168201915b50505050508152602001600382015481526020016004820154815260200160058201548152505090508281606001818151610acd9190611abc565b915081815250508282606001818151610ae69190611a1d565b9150818152505082600485604051610afe9190611976565b90815260200160405180910390206000828254610b1b9190611a1d565b9250508190555082600486604051610b339190611976565b90815260200160405180910390206000828254610b509190611abc565b9250508190555081600385604051610b689190611976565b90815260200160405180910390206000820151816000019080519060200190610b9292919061122c565b506020820151816001019080519060200190610baf92919061122c565b506040820151816002019080519060200190610bcc92919061122c565b50606082015181600301556080820151816004015560a0820151816005015590505080600386604051610bff9190611976565b90815260200160405180910390206000820151816000019080519060200190610c2992919061122c565b506020820151816001019080519060200190610c4692919061122c565b506040820151816002019080519060200190610c6392919061122c565b50606082015181600301556080820151816004015560a082015181600501559050505050505050565b6000600383604051610c9e9190611976565b90815260200160405180910390206040518060c0016040529081600082018054610cc7906119bc565b80601f0160208091040260200160405190810160405280929190818152602001828054610cf3906119bc565b8015610d405780601f10610d1557610100808354040283529160200191610d40565b820191906000526020600020905b815481529060010190602001808311610d2357829003601f168201915b50505050508152602001600182018054610d59906119bc565b80601f0160208091040260200160405190810160405280929190818152602001828054610d85906119bc565b8015610dd25780601f10610da757610100808354040283529160200191610dd2565b820191906000526020600020905b815481529060010190602001808311610db557829003601f168201915b50505050508152602001600282018054610deb906119bc565b80601f0160208091040260200160405190810160405280929190818152602001828054610e17906119bc565b8015610e645780601f10610e3957610100808354040283529160200191610e64565b820191906000526020600020905b815481529060010190602001808311610e4757829003601f168201915b50505050508152602001600382015481526020016004820154815260200160058201548152505090508181606001818151610e9f9190611a1d565b9150818152505081600484604051610eb79190611976565b90815260200160405180910390206000828254610ed49190611a1d565b925050819055508160016000828254610eed9190611abc565b9250508190555080600384604051610f059190611976565b90815260200160405180910390206000820151816000019080519060200190610f2f92919061122c565b506020820151816001019080519060200190610f4c92919061122c565b506040820151816002019080519060200190610f6992919061122c565b50606082015181600301556080820151816004015560a08201518160050155905050505050565b6002818051602081018201805184825260208301602085012081835280955050505050506000915054906101000a900460ff1681565b600381805160208101820180518482526020830160208501208183528095505050505050600091509050806000018054610fff906119bc565b80601f016020809104026020016040519081016040528092919081815260200182805461102b906119bc565b80156110785780601f1061104d57610100808354040283529160200191611078565b820191906000526020600020905b81548152906001019060200180831161105b57829003601f168201915b50505050509080600101805461108d906119bc565b80601f01602080910402602001604051908101604052809291908181526020018280546110b9906119bc565b80156111065780601f106110db57610100808354040283529160200191611106565b820191906000526020600020905b8154815290600101906020018083116110e957829003601f168201915b50505050509080600201805461111b906119bc565b80601f0160208091040260200160405190810160405280929190818152602001828054611147906119bc565b80156111945780601f1061116957610100808354040283529160200191611194565b820191906000526020600020905b81548152906001019060200180831161117757829003601f168201915b5050505050908060030154908060040154908060050154905086565b6005818051602081018201805184825260208301602085012081835280955050505050506000915090508060000154908060010154908060020154908060030154905084565b6040518060c001604052806060815260200160608152602001606081526020016000815260200160008152602001600081525090565b828054611238906119bc565b90600052602060002090601f01602090048101928261125a57600085556112a1565b82601f1061127357805160ff19168380011785556112a1565b828001600101855582156112a1579182015b828111156112a0578251825591602001919060010190611285565b5b5090506112ae91906112b2565b5090565b5b808211156112cb5760008160009055506001016112b3565b5090565b6000604051905090565b600080fd5b600080fd5b600080fd5b600080fd5b6000601f19601f8301169050919050565b7f4e487b7100000000000000000000000000000000000000000000000000000000600052604160045260246000fd5b611336826112ed565b810181811067ffffffffffffffff82111715611355576113546112fe565b5b80604052505050565b60006113686112cf565b9050611374828261132d565b919050565b600067ffffffffffffffff821115611394576113936112fe565b5b61139d826112ed565b9050602081019050919050565b82818337600083830152505050565b60006113cc6113c784611379565b61135e565b9050828152602081018484840111156113e8576113e76112e8565b5b6113f38482856113aa565b509392505050565b600082601f8301126114105761140f6112e3565b5b81356114208482602086016113b9565b91505092915050565b60006020828403121561143f5761143e6112d9565b5b600082013567ffffffffffffffff81111561145d5761145c6112de565b5b611469848285016113fb565b91505092915050565b6000819050919050565b61148581611472565b82525050565b60006020820190506114a0600083018461147c565b92915050565b600081519050919050565b600082825260208201905092915050565b60005b838110156114e05780820151818401526020810190506114c5565b838111156114ef576000848401525b50505050565b6000611500826114a6565b61150a81856114b1565b935061151a8185602086016114c2565b611523816112ed565b840191505092915050565b61153781611472565b82525050565b600060c083016000830151848203600086015261155a82826114f5565b9150506020830151848203602086015261157482826114f5565b9150506040830151848203604086015261158e82826114f5565b91505060608301516115a3606086018261152e565b5060808301516115b6608086018261152e565b5060a08301516115c960a086018261152e565b508091505092915050565b600060208201905081810360008301526115ee818461153d565b905092915050565b6115ff81611472565b811461160a57600080fd5b50565b60008135905061161c816115f6565b92915050565b600080600080600080600060e0888a031215611641576116406112d9565b5b600088013567ffffffffffffffff81111561165f5761165e6112de565b5b61166b8a828b016113fb565b975050602088013567ffffffffffffffff81111561168c5761168b6112de565b5b6116988a828b016113fb565b965050604088013567ffffffffffffffff8111156116b9576116b86112de565b5b6116c58a828b016113fb565b95505060606116d68a828b0161160d565b94505060806116e78a828b0161160d565b93505060a06116f88a828b0161160d565b92505060c06117098a828b0161160d565b91505092959891949750929550565b600080600060608486031215611731576117306112d9565b5b600084013567ffffffffffffffff81111561174f5761174e6112de565b5b61175b868287016113fb565b935050602084013567ffffffffffffffff81111561177c5761177b6112de565b5b611788868287016113fb565b92505060406117998682870161160d565b9150509250925092565b600080604083850312156117ba576117b96112d9565b5b600083013567ffffffffffffffff8111156117d8576117d76112de565b5b6117e4858286016113fb565b92505060206117f58582860161160d565b9150509250929050565b60008115159050919050565b611814816117ff565b82525050565b600060208201905061182f600083018461180b565b92915050565b600082825260208201905092915050565b6000611851826114a6565b61185b8185611835565b935061186b8185602086016114c2565b611874816112ed565b840191505092915050565b600060c08201905081810360008301526118998189611846565b905081810360208301526118ad8188611846565b905081810360408301526118c18187611846565b90506118d0606083018661147c565b6118dd608083018561147c565b6118ea60a083018461147c565b979650505050505050565b600060808201905061190a600083018761147c565b611917602083018661147c565b611924604083018561147c565b611931606083018461147c565b95945050505050565b600081905092915050565b6000611950826114a6565b61195a818561193a565b935061196a8185602086016114c2565b80840191505092915050565b60006119828284611945565b915081905092915050565b7f4e487b7100000000000000000000000000000000000000000000000000000000600052602260045260246000fd5b600060028204905060018216806119d457607f821691505b602082108114156119e8576119e761198d565b5b50919050565b7f4e487b7100000000000000000000000000000000000000000000000000000000600052601160045260246000fd5b6000611a2882611472565b9150611a3383611472565b9250827fffffffffffffffffffffffffffffffffffffffffffffffffffffffffffffffff03821115611a6857611a676119ee565b5b828201905092915050565b6000611a7e82611472565b91507fffffffffffffffffffffffffffffffffffffffffffffffffffffffffffffffff821415611ab157611ab06119ee565b5b600182019050919050565b6000611ac782611472565b9150611ad283611472565b925082821015611ae557611ae46119ee565b5b82820390509291505056fea264697066735822122098f854b2726d9d0a18050309761f7cc813e39da86159e7cc70d7470acef8815264736f6c634300080b0033",
  "immutableReferences": {},
  "source": "pragma solidity ^0.8.0;\r\n\r\ncontract work {\r\n\r\n    uint id;\r\n    uint totalTokens;\r\n    constructor(){\r\n        id = 1;\r\n        totalTokens = 10000000000000000;\r\n    }\r\n\r\n    struct student{\r\n        string name;\r\n        string add;\r\n        string caste;\r\n        uint tokens;\r\n        uint scholaramount;\r\n        uint totalmarks;\r\n    }\r\n    \r\n    struct mark{\r\n        uint sub1;\r\n        uint sub2;\r\n        uint sub3;\r\n        uint total;\r\n    }\r\n    mapping(string => bool) public check;\r\n    mapping(string => student) public students;\r\n    mapping(string => uint) public balances;\r\n    mapping(string => mark) public marks;\r\n\r\n    function register(string memory _name, string memory _add, string memory _caste, uint _income, uint m1,uint m2,uint m3) public{\r\n        \r\n        //require(check[_add]==false,\"Aleady Registered\");\r\n        \r\n        uint am = 0;\r\n        uint totalMarks = m1+m2+m3;\r\n\r\n        if (totalMarks > 240 && _income < 10000)\r\n        { am = 80000; \r\n            \r\n        } \r\n        else if (totalMarks > 150 && totalMarks <=240 && _income < 10000){\r\n            am = 50000;\r\n        }\r\n        else {\r\n            am = 10000;\r\n        }\r\n\r\n        student memory cur;\r\n        cur.name = _name;\r\n        cur.add = _add;\r\n        cur.caste = _caste;\r\n        cur.scholaramount = am;\r\n        cur.tokens = 0;\r\n        cur.totalmarks = totalMarks;\r\n        \r\n        students[_add] = cur;\r\n        balances[_add] = 0;\r\n        mark memory mcur = mark(m1,m2,m3,totalMarks);\r\n        marks[_add] = mcur;\r\n        id++;\r\n        check[_add] = true;\r\n\r\n    }\r\n\r\n\r\n    function supply(string memory _add,uint _tokens) public {\r\n        student memory cur = students[_add];\r\n\r\n        //require(_tokens + cur.tokens<= cur.scholaramount,\"Scholarship Amount\" );\r\n       // require(totalTokens>= _tokens,\"Not Enough Tokens\");\r\n\r\n        cur.tokens += _tokens;\r\n        balances[_add] += _tokens;\r\n\r\n        totalTokens -= _tokens;\r\n\r\n        students[_add] = cur;\r\n\r\n    }\r\n\r\n    function transfer(string memory _sender,string memory _add, uint _tokens) public {\r\n\r\n       //require(balances[_sender]>=_tokens,\"Not Enough Tokens\");\r\n       student memory cur = students[_add];\r\n       //require(_tokens  + cur.tokens<= cur.scholaramount,\"Scholarship Amount\" );\r\n\r\n        student memory cur2 = students[_sender];\r\n\r\n        cur2.tokens -= _tokens;\r\n        cur.tokens += _tokens;\r\n        balances[_add] += _tokens;\r\n        balances[_sender] -= _tokens;\r\n\r\n        students[_add] = cur;\r\n        students[_sender] = cur2;\r\n    }\r\n\r\n    function getdetails(string memory _add) public view returns (student memory){\r\n       // require(check[_add]==true,\"Not registered\");\r\n\r\n        student memory cur = students[_add];\r\n\r\n        return cur;\r\n    }\r\n\r\n    function getBalance(string memory _add) public view returns(uint){\r\n        // require(check[_add]==true,\"Not registered\");\r\n\r\n         uint bal = balances[_add];\r\n         return bal;\r\n    }\r\n\r\n}",
  "sourcePath": "D:\\projects\\shashank\\project\\Web3-Donation-Platform\\contracts\\work.sol",
  "compiler": {
    "name": "solc",
    "version": "0.8.11+commit.d7f03943.Emscripten.clang"
  },
  "schemaVersion": "3.4.8",
  "updatedAt": "2022-08-28T19:38:09.882Z",
  "networkType": "ethereum",
  "devdoc": {
    "kind": "dev",
    "methods": {},
    "version": 1
  },
  "userdoc": {
    "kind": "user",
    "methods": {},
    "version": 1
  }
}